:1000000009C00EC00DC00CC00BC00AC009C008C09A
:1000100007C006C011241FBECFE9CDBF02D037C034
:10002000EFCF82E187BB88E088BB8FEB94EDA1E046
:1000300081509040A040E1F700C0000080E038E02F
:1000400026B3ABE2B1E01197F1F700C0000096B320
:1000500028709870921758F0F3CFEBE2F1E03197E7
:10006000F1F700C000009F5F913111F40DC090E0E6
:10007000B39BF3CFE5CFC19AB09BFECF38BB80E0F6
:10008000DFCFC49A81E0DCCF8823A9F7FACFF894B8
:02009000FFCFA0
:00000001FF
